{
  "contractName": "ATM",
  "abi": [
    {
      "constant": true,
      "inputs": [
        {
          "name": "",
          "type": "uint256"
        }
      ],
      "name": "_acceptedTokens",
      "outputs": [
        {
          "name": "",
          "type": "address"
        }
      ],
      "payable": false,
      "stateMutability": "view",
      "type": "function"
    },
    {
      "inputs": [
        {
          "name": "_tokenContracts",
          "type": "address[]"
        }
      ],
      "payable": false,
      "stateMutability": "nonpayable",
      "type": "constructor"
    },
    {
      "constant": true,
      "inputs": [],
      "name": "accepts",
      "outputs": [
        {
          "name": "",
          "type": "address[]"
        }
      ],
      "payable": false,
      "stateMutability": "view",
      "type": "function"
    },
    {
      "constant": false,
      "inputs": [
        {
          "name": "_tokenContract",
          "type": "address"
        }
      ],
      "name": "addToken",
      "outputs": [
        {
          "name": "",
          "type": "address[]"
        }
      ],
      "payable": false,
      "stateMutability": "nonpayable",
      "type": "function"
    },
    {
      "constant": true,
      "inputs": [
        {
          "name": "_tokenContract",
          "type": "address"
        }
      ],
      "name": "checkSupply",
      "outputs": [
        {
          "name": "_supply",
          "type": "uint256"
        }
      ],
      "payable": false,
      "stateMutability": "view",
      "type": "function"
    }
  ],
  "bytecode": "0x608060405234801561001057600080fd5b506040516108c03803806108c08339810180604052810190808051820192919050505060008090505b81518110156101d757600180838381518110151561005357fe5b9060200190602002015190806001815401808255809150509060018203906000526020600020016000909192909190916101000a81548173ffffffffffffffffffffffffffffffffffffffff021916908373ffffffffffffffffffffffffffffffffffffffff1602179055500360008084848151811015156100d157fe5b9060200190602002015173ffffffffffffffffffffffffffffffffffffffff1673ffffffffffffffffffffffffffffffffffffffff16815260200190815260200160002060010181905550818181518110151561012a57fe5b90602001906020020151600080848481518110151561014557fe5b9060200190602002015173ffffffffffffffffffffffffffffffffffffffff1673ffffffffffffffffffffffffffffffffffffffff16815260200190815260200160002060000160006101000a81548173ffffffffffffffffffffffffffffffffffffffff021916908373ffffffffffffffffffffffffffffffffffffffff1602179055508080600101915050610039565b50506106d8806101e86000396000f300608060405260043610610062576000357c0100000000000000000000000000000000000000000000000000000000900463ffffffff1680630fb1e25614610067578063c1eeffd1146100d4578063d48bfca71461012b578063eeeac9b8146101c3575b600080fd5b34801561007357600080fd5b506100926004803603810190808035906020019092919050505061022f565b604051808273ffffffffffffffffffffffffffffffffffffffff1673ffffffffffffffffffffffffffffffffffffffff16815260200191505060405180910390f35b3480156100e057600080fd5b50610115600480360381019080803573ffffffffffffffffffffffffffffffffffffffff16906020019092919050505061026d565b6040518082815260200191505060405180910390f35b34801561013757600080fd5b5061016c600480360381019080803573ffffffffffffffffffffffffffffffffffffffff16906020019092919050505061042d565b6040518080602001828103825283818151815260200191508051906020019060200280838360005b838110156101af578082015181840152602081019050610194565b505050509050019250505060405180910390f35b3480156101cf57600080fd5b506101d861061e565b6040518080602001828103825283818151815260200191508051906020019060200280838360005b8381101561021b578082015181840152602081019050610200565b505050509050019250505060405180910390f35b60018181548110151561023e57fe5b906000526020600020016000915054906101000a900473ffffffffffffffffffffffffffffffffffffffff1681565b60008173ffffffffffffffffffffffffffffffffffffffff1660016000808573ffffffffffffffffffffffffffffffffffffffff1673ffffffffffffffffffffffffffffffffffffffff168152602001908152602001600020600101548154811015156102d657fe5b9060005260206000200160009054906101000a900473ffffffffffffffffffffffffffffffffffffffff1673ffffffffffffffffffffffffffffffffffffffff1614151561032357600080fd5b6000808373ffffffffffffffffffffffffffffffffffffffff1673ffffffffffffffffffffffffffffffffffffffff16815260200190815260200160002060000160009054906101000a900473ffffffffffffffffffffffffffffffffffffffff1673ffffffffffffffffffffffffffffffffffffffff166318160ddd6040518163ffffffff167c0100000000000000000000000000000000000000000000000000000000028152600401602060405180830381600087803b1580156103e857600080fd5b505af11580156103fc573d6000803e3d6000fd5b505050506040513d602081101561041257600080fd5b81019080805190602001909291905050509050809050919050565b60608173ffffffffffffffffffffffffffffffffffffffff1660016000808573ffffffffffffffffffffffffffffffffffffffff1673ffffffffffffffffffffffffffffffffffffffff1681526020019081526020016000206001015481548110151561049657fe5b9060005260206000200160009054906101000a900473ffffffffffffffffffffffffffffffffffffffff1673ffffffffffffffffffffffffffffffffffffffff16141515156104e457600080fd5b6001808390806001815401808255809150509060018203906000526020600020016000909192909190916101000a81548173ffffffffffffffffffffffffffffffffffffffff021916908373ffffffffffffffffffffffffffffffffffffffff160217905550036000808473ffffffffffffffffffffffffffffffffffffffff1673ffffffffffffffffffffffffffffffffffffffff16815260200190815260200160002060010181905550600180548060200260200160405190810160405280929190818152602001828054801561061257602002820191906000526020600020905b8160009054906101000a900473ffffffffffffffffffffffffffffffffffffffff1673ffffffffffffffffffffffffffffffffffffffff16815260200190600101908083116105c8575b50505050509050919050565b606060018054806020026020016040519081016040528092919081815260200182805480156106a257602002820191906000526020600020905b8160009054906101000a900473ffffffffffffffffffffffffffffffffffffffff1673ffffffffffffffffffffffffffffffffffffffff1681526020019060010190808311610658575b50505050509050905600a165627a7a723058209e09b9332476507bfb814108bdbc24b5ba0d4eea7e86d7a3ea2c869029c1c3ba0029",
  "source": "pragma solidity ^0.4.24;\n\nimport \"../node_modules/openzeppelin-solidity/contracts/token/ERC20/StandardToken.sol\";\n\ncontract ATM  {\n\n    struct Token {\n        StandardToken token;\n        uint256 index;\n    }\n\n    mapping(address => Token) private _tokens;\n    address[] public _acceptedTokens;\n\n    constructor(address[] _tokenContracts) public {\n        for (uint i = 0; i < _tokenContracts.length; i++) {\n            _tokens[_tokenContracts[i]].index = _acceptedTokens.push(_tokenContracts[i]) - 1;\n            _tokens[_tokenContracts[i]].token = StandardToken(_tokenContracts[i]);\n        }\n    }\n\n    function accepts() public view returns (address[]) {\n        return _acceptedTokens;\n    }\n\n    function addToken(address _tokenContract) public returns (address[]) {\n        require(_acceptedTokens[_tokens[_tokenContract].index] != _tokenContract);\n\n        _tokens[_tokenContract].index = _acceptedTokens.push(_tokenContract) - 1;\n\n        return _acceptedTokens;\n    }\n\n    function checkSupply(address _tokenContract) public view returns (uint256 _supply) {\n        require(_acceptedTokens[_tokens[_tokenContract].index] == _tokenContract);\n\n        _supply = _tokens[_tokenContract].token.totalSupply();\n\n        return _supply;\n    }\n}\n",
  "sourcePath": "/Users/red/Desktop/sampler/contracts/ATM.sol",
  "compiler": {
    "name": "solc",
    "version": "0.4.24+commit.e67f0147.Emscripten.clang"
  },
  "schemaVersion": "2.0.1",
  "updatedAt": "2018-07-11T00:40:40.527Z"
}